100001006322024032602:38:36T2001D  TRANSACCIONES DIARIAS                                                                                                                                                                                                                                                                                                                                                                                                                                                                                                                                                                                                                                                                                                                                                                                                                                                                                                                                                                                                                                                                                                                                                                                                                                                                                                                                                                                                                                                                                                    
25406154401277367000010063200001000000002900000000687555537877464NETFLIX.COM                     1503240000000000000001Consumo                                              0000100020220304100001202403262024033120240327202203040489903200000010000000032000000100000000000000000000000000000000000000000100000000000000000000000000000000000000000100000000000000000000000000000000000000000100000000020000000000000000000000000000000000000000+0000000000000+00000000000000000 0000000000000+006           0000000010000000+0320000010000000+0320000000000000 0000000016511150324000028                                                                                                                                                                                                                                                                                                                                                                                                                                                                                                                  000000000100011619032602275500000000000000000000000000000000000+0000000000000+0000000000000+00                   20000000000000+00000000000000+0000000000000000000000000000+                                                                                                                                                                                                                                                                   
25406154401277367000010063200001000000002900000000687555537877464NETFLIX.COM                     5675270000000000000001Consumo                                              0000100020220304100001202403262024033120240327202203040489903200000010000000032000000100000000000000000000000000000000000000000100000000000000000000000000000000000000000100000000000000000000000000000000000000000100000000020000000000000000000000000000000000000000+0000000000000+00000000000000000 0000000000000+006           0000000010000000+0320000010000000+0320000000000000 0000000016512567527000028                                                                                                                                                                                                                                                                                                                                                                                                                                                                                                                  000000000100011619032602310600000000000000000000000000000000000+0000000000000+0000000000000+00                   20000000000000+00000000000000+0000000000000000000000000000+                                                                                                                                                                                                                                                                   
25406154401277367000010063200001000000002900000000687555537877464NETFLIX.COM           NETFLIX.CO9814450000008809400001Consumo                       201234512161234567890100000100020220304100001202403262024033120240327202203040489903200000010000000032000000100000000000000000000000000000000000000000100000000000000000000000000000000000000000100000000000000000000000000000000000000000100000000020000000000000000000004800000000000004800+0000000001008+00000000010000000+0000000000000+006           8400000010000000+0320000010000000+0320000010000000+0320000016513981445000028                                                                                                                                                                                                                                                                                                                                                                                                                                                                                                                  000000000100011619032602360600000000000000000000000000000000000+0000000000000+0000000000000+00                   20000000000000+00000000000000+0000000000000000000000000000+                                                                                                                                                                                                                                                                   
25406154401277367000010063200001000000002900000000               COTO                  COTO      2242600000008809400001Consumo                       201234512161234567890100000100020240326100001202403262024033120240327202403260599903200000025000000032000000250000000000000000000000000000000000000000250000000000000000000000000000000000000000250000000000000000000000000000000000000000250000000020000000000000000000001919990000000004800+0000000001008+00000000025000000+0000000000000+006           0320000025000000+0320000025000000+0320000025000000+0320000016506224260000028                                                                                                                                                                                                                                                                                                                                                                                                                                                                                                                  000000000100000002032614184400000012345000000096850000000000000+0000000000000+0000000000000+00                   00000000000000+00000000000000+0000000000000000000000000000+                                                                                                                                                                                                                                                                   
25406154401277367000010063200001000000002900000000687555537877464NETFLIX.COM                     7895980000000000000001Consumo                                              0000100020220304100001202403262024033120240327202203040489903200000010000000032000000100000000000000000000000000000000000000000100000000000000000000000000000000000000000100000000000000000000000000000000000000000100000000020000000000000000000000000000000000000000+0000000000000+00000000000000000 0000000000000+006           0000000010000000+0320000010000000+0320000000000000 0000000016508789598000028                                                                                                                                                                                                                                                                                                                                                                                                                                                                                                                  000000000100011619032612310200000000000000000000000000000000000+0000000000000+0000000000000+00                   20000000000000+00000000000000+0000000000000000000000000000+                                                                                                                                                                                                                                                                   
25406154401277367000010063200001000000002900000000687555537877464NETFLIX.COM                     9861580000000000000001Consumo                                              0000100020220304100001202403262024033120240327202203040489903200000010000000032000000100000000000000000000000000000000000000000100000000000000000000000000000000000000000100000000000000000000000000000000000000000100000000020000000000000000000000000000000000000000+0000000000000+00000000000000000 0000000000000+006           0000000010000000+0320000010000000+0320000000000000 0000000016504986158000028                                                                                                                                                                                                                                                                                                                                                                                                                                                                                                                  000000000100011619032610231200000000000000000000000000000000000+0000000000000+0000000000000+00                   20000000000000+00000000000000+0000000000000000000000000000+                                                                                                                                                                                                                                                                   
300632000000000006                                                                                                                                                                                                                                                                                                                                                                                                                                                                                                                                                                                                                                                                                                                                                                                                                                                                                                                                                                                                                                                                                                                                                                                                                                                                                                                                                                                                                                                                                                                                          
