100001006322024032509:57:07T2001D  TRANSACCIONES DIARIAS                                                                                                                                                                                                                                                                                                                                                                                                                                                                                                                                                                                                                                                                                                                                                                                                                                                                                                                                                                                                                                                                                                                                                                                                                                                                                                                                                                                                                                                                                                    
25406154401277367000010063200001000000002900000000687555537877464NETFLIX.COM                     6971140000000000000001Consumo                                              0000100020220304100001202403222024033120240325202203040489903200000010000000032000000100000000000000000000000000000000000000000100000000000000000000000000000000000000000100000000000000000000000000000000000000000100000000020000000000000000000000000000000000000000+0000000000000+00000000000000000 0000000000000+006           0000000010000000+0320000010000000+0320000000000000 0000000016468697114000028                                                                                                                                                                                                                                                                                                                                                                                                                                                                                                                  000000000100011619032203165100000000000000000000000000000000000+0000000000000+0000000000000+00                   20000000000000+00000000000000+0000000000000000000000000000+                                                                                                                                                                                                                                                                   
25406154401277367000010063200001000000002900000000687555537877464NETFLIX.COM                     2318840000000000000001Consumo                                              0000100020220304100001202403222024033120240325202203040489903200000010000000032000000100000000000000000000000000000000000000000100000000000000000000000000000000000000000100000000000000000000000000000000000000000100000000020000000000000000000000000000000000000000+0000000000000+00000000000000000 0000000000000+006           0000000010000000+0320000010000000+0320000000000000 0000000016472231884000028                                                                                                                                                                                                                                                                                                                                                                                                                                                                                                                  000000000100011619032203272800000000000000000000000000000000000+0000000000000+0000000000000+00                   20000000000000+00000000000000+0000000000000000000000000000+                                                                                                                                                                                                                                                                   
25406154401277367000010063200001000000002900000000687555537877464NETFLIX.COM                     7294490000000000000001Consumo                                              0000100020220304100001202403222024033120240325202203040489903200000010000000032000000100000000000000000000000000000000000000000100000000000000000000000000000000000000000100000000000000000000000000000000000000000100000000020000000000000000000000000000000000000000+0000000000000+00000000000000000 0000000000000+006           0000000010000000+0320000010000000+0320000000000000 0000000016456729449000028                                                                                                                                                                                                                                                                                                                                                                                                                                                                                                                  000000000100011619032201511400000000000000000000000000000000000+0000000000000+0000000000000+00                   20000000000000+00000000000000+0000000000000000000000000000+                                                                                                                                                                                                                                                                   
25406154401277367000010063200001000000002900000000687555537877464NETFLIX.COM                     4271190000000000000001Consumo                                              0000100020220304100001202403222024033120240325202203040489903200000010000000032000000100000000000000000000000000000000000000000100000000000000000000000000000000000000000100000000000000000000000000000000000000000100000000020000000000000000000000000000000000000000+0000000000000+00000000000000000 0000000000000+006           0000000010000000+0320000010000000+0320000000000000 0000000016462427119000028                                                                                                                                                                                                                                                                                                                                                                                                                                                                                                                  000000000100011619032202060900000000000000000000000000000000000+0000000000000+0000000000000+00                   20000000000000+00000000000000+0000000000000000000000000000+                                                                                                                                                                                                                                                                   
300632000000000004                                                                                                                                                                                                                                                                                                                                                                                                                                                                                                                                                                                                                                                                                                                                                                                                                                                                                                                                                                                                                                                                                                                                                                                                                                                                                                                                                                                                                                                                                                                                          
