100001006322023050305:00:41T2001D  TRANSACCIONES DIARIAS                                                                                                                                                                                                                                                                                                                                                                                                                                                                                                                                                                                                                                                                                                                                                                                                                                                                                                                                                                                                                                                                                                                                                                                                                                                                                                                                                                                                                                                                                                    
25406154895376857000010063200008000000007600000000000000000000007COTO                  COTO      2213890000008809400001Consumo                       201234512161234567890100000100020230502012000202302172023053120230222202305020489903200000083170000840000000005000000000000000000000000000000000000000831700000000000000000000000000000000000000831700000000000000000000000000000000000000831700000020000000000000000000096000000000000004800+0000000001008+00000000000500000+0000000000000+006           8400000083170000+0320000083170000+0320000000500000+0320000013192221389000076                                                                                                                                                                                                                                                                                                                                                                                                                                                                                                                  000000000100000012050219482900000012345000000096850000024225000+0000000000000+0000000000000+00                   00000036337500+00000000000000+0000000000000000000000000000+                                                                                                                                                                                                                                                                   
25406154895376857000010063200008000000007600000000000000000000007NETFLIX.COM           NETFLIX.CO5714840000008809400001Consumo                       201234512161234567890100000100020230502012000202302172023053120230222202305020489903200000010000000032000000100000000000000000000000000000000000000000100000000000000000000000000000000000000000100000000000000000000000000000000000000000100000000020000000000000000000004800000000000004800+0000000001008+00000000010000000+0000002100000+006           8400000010000000+0320000010000000+0320000010000000+0320000013193571484000076                                                                                                                                                                                                                                                                                                                                                                                                                                                                                                                  000000000100000013050219483600000012345000000096850000000800000+0000002100000+0000000000000+00                   00000004500000+00000000000000+0000000000000000000000000000+                                                                                                                                                                                                                                                                   
25406154895376857000010063200008000000007600000000000000000000007DEBITO AUTOMATQA1     DEBITO AUT6897330000008809400003Debito                        201234512161234567890100000100020230502012000202302172023053120230222202305020489903200000033268000840000000002000000000000000000000000000000000000000332680000000000000000000000000000000000000332680000000000000000000000000000000000000332680000020000000000000000000240000000000000004800+0000000001008+00000000000200000+0000000000000+006           8400000033268000+0320000033268000+0320000000200000+0320000013195689733000076                                                                                                                                                                                                                                                                                                                                                                                                                                                                                                                  000000000100000015050219502300000012345000000096850000009690000+0000000000000+0000000000000+00                   00000014535000+00000000000000+0000000000000000000000000000+                                                                                                                                                                                                                                                                   
25406154895376857000010063200008000000007600000000000000000000007COTO                  COTO      2233440000008809400001Consumo                       201234512161234567890100000100020230502012000202302172023053120230222202305020489903200000166340000840000000010000000000000000000000000000000000000001663400000000000000000000000000000000000001663400000000000000000000000000000000000001663400000020000000000000000000048000000000000004800+0000000001008+00000000001000000+0000000000000+006           8400000166340000+0320000166340000+0320000001000000+0320000013202223344000076                                                                                                                                                                                                                                                                                                                                                                                                                                                                                                                  000000000100010395050303470100000000000000000000000000048450000+0000000000000+0000000000000+00                   20000072675000+00000000000000+0000000000000000000000000000+                                                                                                                                                                                                                                                                   
300632000000000004                                                                                                                                                                                                                                                                                                                                                                                                                                                                                                                                                                                                                                                                                                                                                                                                                                                                                                                                                                                                                                                                                                                                                                                                                                                                                                                                                                                                                                                                                                                                          
