100001006322023050304:49:54T2001D  TRANSACCIONES DIARIAS                                                                                                                                                                                                                                                                                                                                                                                                                                                                                                                                                                                                                                                                                                                                                                                                                                                                                                                                                                                                                                                                                                                                                                                                                                                                                                                                                                                                                                                                                                    
25406150077946921000010063200001000000005300000000Test DE42      NETFLIX                               0000000000000001Consumo                                              0000100020230125120000202301252023053120230126202301250300003200000011643800032000000116438000000000000000000000000000000000000116438000000000000000000000000000000000000116438000000000000000000000000000000000000116438000020000000000000000000000000000000000000000+0000000000000+00000000000000000 0000002445200+006           0000000011643800+0320000011643800+0320000000000000 0000000013183000000000053                                                                                                                                                                                                                                                                                                                                                                                                                                                                                                                  000000000100010377050202482700000000000000000000000000000931500+0000002445200+0000000232900+01                   20000005239700+00000000000000+0000000000000000000000000000+                                                                                                                                                                                                                                                                   
25406153118416953000010063200008000000007300000000000000000000007NETFLIX.COM           NETFLIX.CO1009510000008809400001Consumo                       201234512161234567890100000100020230428012000202302172023053120230222202304280489903200000010000000032000000500000000000000000000000000000000000000000100000000000000000000000000000000000000000100000000000000000000000000000000000000000100000000020000000000000000000004800000000000004800+0000000001008+00000000010000000+0000000000000+006           8400000050000000+0320000050000000+0320000010000000+0320000013140100951000073                                                                                                                                                                                                                                                                                                                                                                                                                                                                                                                  000000000100000012042814234500000012345000000096850000000000000+0000000000000+0000000000000+00                   00000000000000+00000000000000+0000000000000000000000000000+                                                                                                                                                                                                                                                                   
25406153118416953000010063200008000000007300000000000000000000007NETFLIX.COM           NETFLIX.CO7626640000008809400001Consumo                       201234512161234567890100000100020230428012000202302172023053120230222202304280489903200001000000000032000000500000000000000000000000000000000000000010000000000000000000000000000000000000000010000000000000000000000000000000000000000010000000000020000000000000000000000048000000000004800+0000000001008+00000001000000000+0000000000000+006           8400000050000000+0320000050000000+0320001000000000+0320000013140762664000073                                                                                                                                                                                                                                                                                                                                                                                                                                                                                                                  000000000100000012042814234500000012345000000096850000000000000+0000000000000+0000000000000+00                   00000000000000+00000000000000+0000000000000000000000000000+                                                                                                                                                                                                                                                                   
25406153118416953000010063200008000000007300000000000000000000007DEBITO AUTOMATUAT     DEBITO AUT9014600000008809400001Consumo                       201234512161234567890100000100020230428012000202302172023053120230222202304280489903200000033268000840000000001000000000000000000000000000000000000000332680000000000000000000000000000000000000332680000000000000000000000000000000000000332680000020000000000000000000240000000000000004800+0000000001008+00000000000200000+0000000000000+006           8400000016634000+0320000016634000+0320000000200000+0320000013151901460000073                                                                                                                                                                                                                                                                                                                                                                                                                                                                                                                  000000000100000013042815443100000012345000000096850000000000000+0000000000000+0000000000000+00                   00000000000000+00000000000000+0000000000000000000000000000+                                                                                                                                                                                                                                                                   
25406153118416953000010063200008000000007300000000000000000000007NETFLIX.COM           NETFLIX.CO7626580000008809400001Consumo                       201234512161234567890100000100020230428012000202302172023053120230222202304280489903200000003000000032000000030000000000000000000000000000000000000000030000000000000000000000000000000000000000030000000000000000000000000000000000000000030000000020000000000000000000016000000000000004800+0000000001008+00000000003000000+0000000630000+006           8400000003000000+0320000003000000+0320000003000000+0320000013182762658000073                                                                                                                                                                                                                                                                                                                                                                                                                                                                                                                  000000000100010374050202472900000000000000000000000000000240000+0000000630000+0000000000000+00                   20000001350000+00000000000000+0000000000000000000000000000+                                                                                                                                                                                                                                                                   
25406153118416953000010063200008000000007300000000000000000000007COTO                  COTO      5791920000008809400001Consumo                       201234512161234567890100000100020230428012000202302172023053120230222202304280489903200000083170000840000000001000000000000000000000000000000000000000831700000000000000000000000000000000000000831700000000000000000000000000000000000000831700000020000000000000000000096000000000000004800+0000000001008+00000000000500000+0000000000000+006           8400000016634000+0320000016634000+0320000000500000+0320000013151579192000073                                                                                                                                                                                                                                                                                                                                                                                                                                                                                                                  000000000100000013042815443100000012345000000096850000000000000+0000000000000+0000000000000+00                   00000000000000+00000000000000+0000000000000000000000000000+                                                                                                                                                                                                                                                                   
300632000000000006                                                                                                                                                                                                                                                                                                                                                                                                                                                                                                                                                                                                                                                                                                                                                                                                                                                                                                                                                                                                                                                                                                                                                                                                                                                                                                                                                                                                                                                                                                                                          
